0418166   BOM21000001H-13 15.5 DIA       00023800IN 000100RYYPRDY0001                                                                                                                    
0418167   BOM21000001H-13 15.5 DIA       00023800IN 000100RYYPRDY0001                                                                                                                    
0418168   BOM21000001H-13 15.5 DIA       00033800IN 000100RYYPRDY0001                                                                                                                    
0418169   BOM21000001H-13 15.5 DIA       00063800IN 000100RYYPRDY0001                                                                                                                    
0418166   RTE3790001NIN1   NI 000000000000000100000001C100000000010001010000000000000001Y000000000N                                        0000000000000000000000000000000000000000000000
0418167   RTE3020001CDEMPL CAD000000000000000100000001C100000000010001010000000000000001Y000000000N                                        0000000000000000000000000000000000000000000000
0418167   RTE3030001CMEMPL CAM000000000000000100000001C100000000010001010000000000000001Y000000000N                                        0000000000000000000000000000000000000000000000
0418168   RTE3020001CDEMPL CAD000000000000000100000001C100000000010001010000000000000001Y000000000N                                        0000000000000000000000000000000000000000000000
0418168   RTE3030001CMEMPL CAM000000000000000100000001C100000000010001010000000000000001Y000000000N                                        0000000000000000000000000000000000000000000000
0418169   RTE3020001CDEMPL CAD000000000000000100000001C100000000010001010000000000000001Y000000000N                                        0000000000000000000000000000000000000000000000
0418169   RTE3030001CMEMPL CAM000000000000000100000001C100000000010001010000000000000001Y000000000N                                        0000000000000000000000000000000000000000000000
